:100000000C9434000C943E000C943E000C943E0082
:100010000C943E000C943E000C943E000C943E0068
:100020000C943E000C943E000C943E000C943E0058
:100030000C943E000C943E000C943E000C943E0048
:100040000C943E000C943E000C943E000C943E0038
:100050000C943E000C943E000C943E000C943E0028
:100060000C943E000C943E0011241FBECFEFD8E04C
:10007000DEBFCDBF0E9440000C9477000C940000BE
:10008000209A219A21E032E085E090E025B94FEFF7
:1000900056E761E0415050406040E1F700C0000089
:1000A00015B84FEF53EF61E0415050406040E1F729
:1000B00000C000000197009749F785E090E035B94E
:1000C0004FEF56E761E0415050406040E1F700C01B
:1000D000000015B84FEF53EF61E0415050406040D1
:1000E000E1F700C000000197009749F7CDCFF894E1
:0200F000FFCF40
:00000001FF
