:100000000C9434000C9451000C9451000C94510049
:100010000C9451000C9451000C9451000C9451001C
:100020000C9451000C9451000C9451000C9451000C
:100030000C9451000C9451000C9451000C945100FC
:100040000C9451000C9451000C9451000C945100EC
:100050000C9451000C9451000C9451000C945100DC
:100060000C9451000C94510011241FBECFEFD8E026
:10007000DEBFCDBF11E0A0E0B1E0ECEFF1E002C0E7
:1000800005900D92A634B107D9F721E0A6E4B1E0BE
:1000900001C01D92AC34B207E1F70E9475000C94C8
:1000A000FC000C9400001092C50087E68093C40009
:1000B00088E18093C10086E08093C2000895CF93C9
:1000C000C82F8A3019F48DE00E945F008091C00033
:1000D00085FFFCCFC093C600CF9108958091C000EA
:1000E00087FFFCCF8091C60008950E9453008EE0E8
:1000F00091E090934901809348018CE191E00E9446
:10010000D0002FEF8FE097E2215080409040E1F740
:1001100000C0000083E291E00E94D0002FEF8FE04A
:1001200097E2215080409040E1F700C0000088E253
:1001300091E00E94D0002FEF8FE097E221508040A5
:100140009040E1F700C0000084E391E00E94D000FD
:100150002FEF8FE097E2215080409040E1F700C000
:1001600000008AE391E00E94D0002FEF8FE097E239
:10017000215080409040E1F700C0000084E391E00E
:100180000E94D0002FEF8FE097E2215080409040F6
:10019000E1F700C0000081E491E00E94D000FFCFB1
:1001A0000F931F93CF93DF93E0914801F0914901A2
:1001B000238100E010E021FD0EC00FEF1FEFC8010A
:1001C000DF91CF911F910F9108950995892B11F01F
:1001D0000FEF1FEFCE01EC01899160914801709102
:1001E0004901DB011896ED91FC918111EECF8AE077
:0C01F0000995892B21F3E1CFF894FFCF93
:1001FC00000000010000000000006E000000000084
:10020C000002000000005F00000000004F6C7573DE
:10021C006961006A657374004B726F7769737A6FEA
:10022C006E656D00203C333C33003C333C333C3337
:06023C000020203C33000D
:00000001FF
