:100000000C9434000C943E000C943E000C943E0082
:100010000C943E000C943E000C943E000C943E0068
:100020000C943E000C943E000C943E000C943E0058
:100030000C943E000C943E000C943E000C943E0048
:100040000C943E000C943E000C943E000C943E0038
:100050000C943E000C943E000C943E000C943E0028
:100060000C943E000C943E0011241FBECFEFD8E04C
:10007000DEBFCDBF0E9440000C94A8020C9400008B
:10008000CF93DF93CDB7DEB7C454D1090FB6F89440
:10009000DEBF0FBECDBF84E290E0DC012C9184E294
:1000A00090E02160FC01208385E290E0DC012C914E
:1000B00085E290E02E7FFC01208380E090E0A8ECB8
:1000C000B2E48F87988BA98BBA8B20E030E04AE7A7
:1000D00055E46F85788989899A890E9413026DA3F6
:1000E0007EA38FA398A78DA19EA1AFA1B8A58B8B4E
:1000F0009C8BAD8BBE8B20E030E040E85FE36B89EA
:100100007C898D899E890E948D0188232CF481E051
:1001100090E0988F8F8B55C020E03FEF4FE757E47A
:100120006B897C898D899E890E940E028823D9F172
:10013000D4F120E030E040E251E46F85788989898C
:100140009A890E94130269A77AA78BA79CA789A501
:100150009AA5ABA5BCA589A39AA3ABA3BCA369A18F
:100160007AA18BA19CA10E9492016DA77EA78FA767
:1001700098ABADA5BEA5B88FAF8B10C080E991E05C
:100180009A8F898F898D9A8D0197F1F79A8F898F30
:1001900000008F89988D0197988F8F8B8F89988D0C
:1001A000009761F719C06B897C898D899E890E94AF
:1001B000920169AB7AAB8BAB9CABE9A9FAA9F88F3A
:1001C000EF8B8F89988D9C8F8B8F8B8D9C8D01975A
:1001D000F1F79C8F8B8F000085E290E0DC012C9181
:1001E00085E290E02160FC01208380E090E0A1E6C0
:1001F000B4E489839A83AB83BC8320E030E04AE790
:1002000055E469817A818B819C810E9413026DABD8
:100210007EAB8FAB98AF8DA99EA9AFA9B8AD8D83EA
:100220009E83AF83B88720E030E040E85FE36D81D4
:100230007E818F8198850E948D0188232CF481E036
:1002400090E09A8789875CC020E03FEF4FE757E452
:100250006D817E818F8198850E940E02882309F02E
:100260000CF43CC020E030E040E251E469817A8146
:100270008B819C810E94130269AF7AAF8BAF9CAFD8
:1002800089AD9AADABADBCAD8D8F9E8FAF8FB8A34E
:100290006D8D7E8D8F8D98A10E94920121966CAFFD
:1002A0007DAF8EAF9FAF2197ADADBEADBA87A987A9
:1002B00010C080E991E09C878B878B859C85019796
:1002C000F1F79C878B87000089859A8501979A872B
:1002D000898789859A85009761F71DC06D817E8128
:1002E0008F8198850E94920125966CAF7DAF8EAF6D
:1002F0009FAF25972396EEADFFAD2397FA87E98749
:1003000089859A859E878D878D859E850197F1F7D2
:100310009E878D8700000000C7CE0E94C10108F4AF
:1003200081E008950E94ED0188F09F5798F0B92F61
:100330009927B751B0F0E1F0660F771F881F991F1A
:100340001AF0BA95C9F714C0B13091F00E940702B3
:10035000B1E008950C940702672F782F8827B85FC3
:1003600039F0B93FCCF3869577956795B395D9F772
:100370003EF490958095709561957F4F8F4F9F4F7C
:100380000895990F0008550FAA0BE0E8FEEF161626
:100390001706E807F907C0F012161306E407F50779
:1003A00098F0621B730B840B950B39F40A2661F0ED
:1003B000232B242B252B21F408950A2609F4A14090
:1003C000A6958FEF811D811D089557FD9058440F0C
:1003D000551F59F05F3F71F04795880F97FB991FA4
:1003E00061F09F3F79F08795089512161306140661
:1003F000551FF2CF4695F1DF08C0161617061806EE
:10040000991FF1CF86957105610508940895E894C8
:10041000BB2766277727CB0197F908950E94C10172
:1004200008F48FEF08950E9426020C9497020E9410
:10043000890238F00E94900220F0952311F00C946C
:1004400080020C94860211240C9408020E94E5019B
:1004500070F3959FC1F3950F50E0551F629FF00117
:10046000729FBB27F00DB11D639FAA27F00DB11D30
:10047000AA1F649F6627B00DA11D661F829F2227B9
:10048000B00DA11D621F739FB00DA11D621F839F40
:10049000A00D611D221F749F3327A00D611D231F16
:1004A000849F600D211D822F762F6A2F11249F5764
:1004B00050409AF0F1F088234AF0EE0FFF1FBB1F67
:1004C000661F771F881F91505040A9F79E3F510526
:1004D00080F00C9480020C9408025F3FE4F3983E95
:1004E000D4F3869577956795B795F795E7959F5FD0
:1004F000C1F7FE2B880F911D9695879597F9089562
:1005000097F99F6780E870E060E008959FEF80ECC6
:10051000089500240A941616170618060906089569
:1005200000240A9412161306140605060895092ECF
:100530000394000C11F4882352F0BB0F40F4BF2B3E
:1005400011F460FF04C06F5F7F4F8F4F9F4F08957E
:04055000F894FFCF4D
:00000001FF
